:020000040800F2
:1000000000080020CD010008D5010008D701000834
:10001000D9010008DB010008DD0100080000000034
:10002000000000000000000000000000DF010008E8
:10003000E101000800000000E30100083D0B00089A
:100040008B0D0008CD080008E7010008E701000853
:1000500079030008ED0900089D020008B1020008BC
:10006000BB020008C5020008CF020008E701000833
:10007000E7010008E7010008E7010008E7010008C0
:10008000E7010008E7010008E7010008E7010008B0
:10009000E70100088902000893020008D90200085D
:1000A000E7010008E7010008E7010008B50B0008B8
:1000B000BF0B0008C90B0008D30B0008710800082B
:1000C00067080008850800087B080008010A000886
:1000D0000B0A00080F0C0008190C0008230C00087C
:1000E000A7020008E7010008E7010008E70100088F
:1000F000E7010008E7010008F10B0008E70100082C
:1001000083030008F7090008DD0B0008150A000842
:10011000FB0B0008050C0008E7010008E70B0008CE
:10012000E7010008E7010008E7010008E70100080F
:1001300000F002F800F03AF80AA090E8000C8244BF
:100140008344AAF10107DA4501D100F02FF8AFF29C
:10015000090EBAE80F0013F0010F18BFFB1A43F0A5
:1001600001031847F810000018110000103A24BFCE
:1001700078C878C1FAD8520724BF30C830C144BF0C
:1001800004680C607047000000230024002500264E
:10019000103A28BF78C1FBD8520728BF30C148BFEA
:1001A0000B6070471FB51FBD10B510BD00F037F8CC
:1001B0001146FFF7F7FF00F0CAFF00F055F803B44F
:1001C000FFF7F2FF03BC00F059F800000948804730
:1001D00009480047FEE7FEE7FEE7FEE7FEE7FEE729
:1001E000FEE7FEE7FEE7FEE704480549054A064B41
:1001F00070470000550B0008310100080002002084
:100200000008002000040020000400207047704710
:100210007047000000487047A001002070477546F5
:10022000FFF7F8FFAE4605006946534620F0070089
:10023000854618B020B5FFF7D7FFBDE820404FF046
:1002400000064FF000074FF000084FF0000B21F0C0
:100250000701AC46ACE8C009ACE8C009ACE8C0098D
:10026000ACE8C0098D46704710B50446AFF3008076
:100270002046BDE81040FFF7A2BF0000014918204A
:10028000ABBEFEE72600020010B5152000F0F2F923
:1002900010BD10B5162000F0EDF910BD10B5062008
:1002A00000F0E8F910BD10B5282000F0E3F910BD0A
:1002B00010B5072000F0DEF910BD10B5082000F0E1
:1002C000D9F910BD10B5092000F0D4F910BD10B552
:1002D0000A2000F0CFF910BD10B5172000F0CAF9C0
:1002E00010BD0000002123498279002A3AD00A4635
:1002F000126803689A430B461A600A1D1268036865
:100300009A430B1D1A60027911440A6803681A4364
:100310000A60184A0832126803689A43154B08337A
:100320001A601A1D126803689A43124B0C331A6044
:100330004279102A0ED11A1F126803681A430D4B16
:1003400008331A601A1D126803681A43094B0C33EC
:100350001A600DE00749427911440A6803681A439C
:100360000A6005E0027911440A6803689A430A604A
:10037000704700000004014010B5042000F07AF935
:1003800010BD10B5302000F075F910BD30B5002259
:100390008B071C0F0F2303FA04F20B4B8C1053F83E
:1003A00024309343084C8D1044F8253023468C109C
:1003B00053F824308C07240F00FA04F42343024C32
:1003C0008D1044F8253030BD080001402DE9F04182
:1003D000024600250026002000230024002791F873
:1003E00003C00CF00F0591F803C00CF0100CBCF129
:1003F000000F03D091F802C04CEA050591F800C047
:10040000BCF1000F31D0146800202BE04FF0010C3C
:100410000CFA00F3B1F800C00CEA03069E4220D1AA
:1004200083004FF00F0C0CFA03F7BC4305FA03FCF2
:100430004CEA040491F803C0BCF1280F06D14FF038
:10044000010C0CFA00FCC2F814C00AE091F803C0D9
:10045000BCF1480F05D14FF0010C0CFA00FCC2F8BA
:1004600010C0401C0828D1D31460B1F800C0BCF102
:10047000FF0F34DD546800202EE000F1080C4FF02F
:10048000010808FA0CF3B1F800C00CEA03069E421A
:1004900021D183004FF00F0C0CFA03F7BC4305FA8F
:1004A00003FC4CEA040491F803C0BCF1280F05D109
:1004B00000F1080C08FA0CF8C2F8148091F803C097
:1004C000BCF1480F07D100F1080C4FF0010808FA01
:1004D0000CF8C2F81080401C0828CED35460BDE848
:1004E000F0810000F0B50A46002300240021002519
:1004F00000F00046B6F1004F02D11D4EF16901E057
:100500001B4E7168C0F3034583B200F44016B6F584
:10051000401F08D121F07061154E766826F0706694
:10052000134F7E6012E000F48016B6F5801F06D1EE
:10053000032606FA05F4A14341F0706106E0460D7A
:10054000360103FA06F6B14341F0706122B1460D5F
:10055000360103FA06F6314300F00046B6F1004FCB
:1005600002D1034EF16101E0014E7160F0BD000067
:10057000000001400AB1016100E0416170470000E4
:100580002DE9FE4306460C461546304600F0DEFCDB
:1005900081460121484600F0AFF9284600F090FD61
:1005A0008DF80B00ADF8084003208DF80A0002A971
:1005B0003046FFF70BFF2548864208D1B4F5005FAF
:1005C0000CD0B4F5804F09D0B4F5004F06D02048C8
:1005D00086420BD1082C01D0102C07D101210846EE
:1005E00000F08AF901211B48FFF77CFF05F48070B9
:1005F00028B905F0400010B905F0800020B30121B2
:10060000084600F079F9204600F0D4FCC7B2304625
:1006100000F024FD00F0FF0839464046FFF7B6FE23
:100620004FF4A06000F034F9009401208DF806002A
:1006300000208DF80400284600F076FC8DF80500B7
:100640006846FFF74FFE00BFBDE8FE83000801408B
:10065000000C01400004300070B505460E461446FB
:100660000CB1012000E00020024631462846FFF789
:1006700081FF70BD70B504465B2C06D2034850F86C
:1006800024500348854200D0A84770BD34000020A4
:10069000950600087047014648B200F01F0301228A
:1006A0009A4043099B0003F1E023C3F8002100BFF7
:1006B000704700005B2802D2014A42F820107047C0
:1006C000340000202DE9F04385B0064688461446E4
:1006D0001D46DDF830904D4886421FD1012104208F
:1006E00000F00AF97015ADF8100003208DF8120023
:1006F00018208DF8130004A94548FFF767FE301550
:10070000ADF8100004208DF8130004A94048FFF74D
:100710005DFE0121880300F0EFF844E03D48864289
:100720001FD10121042000F0E7F818208DF81300F4
:100730000420ADF8100003208DF8120004A93448FD
:10074000FFF744FE0820ADF8100004208DF81300D8
:1007500004A92F48FFF73AFE0121480400F0BCF835
:1007600021E02D4886421ED10121082000F0C4F866
:1007700018208DF813003015ADF8100003208DF807
:10078000120004A92548FFF721FE04208DF813006C
:100790004002ADF8100004A92048FFF717FE012120
:1007A000880400F099F8082D00D114B1072D02D16A
:1007B0000CB1002707E0082D00D114B9092D02D192
:1007C0000CB94FF48057CDF80080ADF804701FFAD3
:1007D00089F0ADF80600A0B2ADF808000C20ADF825
:1007E0000A000020ADF80C006946304600F05CFAC3
:1007F000012240F22551304600F031FA0121304605
:1008000000F014FA05B0BDE8F083000000380140A4
:10081000000801400044004000480040000C014036
:100820002DE9F04180460D461646002415E00027CC
:1008300002E0012000F094FC2021404600F002FA82
:1008400018B9781C0746FF28F3DBFF2F00DB06E012
:10085000404600F095FA2855641CB442E7DB00BF1F
:100860002046BDE8F08110B52020FFF703FF10BD42
:1008700010B51F20FFF7FEFE10BD10B52220FFF7B8
:10088000F9FE10BD10B52120FFF7F4FE10BD0000E9
:1008900002490143024A1160704700000000FA0556
:1008A0000CED00E010B5002807DA0A07140E054A1F
:1008B00000F00F031B1FD45403E00A07130E024A73
:1008C000135410BD18ED00E000E400E010B5012065
:1008D000FFF7D0FE10BD000029B1064AD2690243DD
:1008E000044BDA6104E0034AD2698243014BDA61C6
:1008F000704700000010024029B1064A9269024385
:10090000044B9A6104E0034A92698243014B9A6165
:10091000704700000010024030B500210022002482
:1009200000232D4D6D6805F00C0121B1042905D07F
:10093000082923D105E0294D056022E0274D0560F7
:100940001FE0254D6D6805F47012234D6D6805F4A8
:100950008034022505EB92421CB9214D55430560B8
:100960000BE01D4D6D6805F400351DB11C4D554360
:10097000056002E0194D5543056002E0174D056022
:1009800000BF00BF144D6D6805F0F0010909154D59
:100990006B5C0568DD4045600F4D6D6805F4E061F6
:1009A000090A104D6B5C4568DD4085600A4D6D6835
:1009B00005F46051C90A0B4D6B5C4568DD40C560AC
:1009C000054D6D6805F44041890B074D6B5CC568AA
:1009D000B5FBF3F5056130BD0010024000127A004E
:1009E00000093D00000000201000002010B5052087
:1009F000FFF740FE10BD10B53120FFF73BFE10BDE4
:100A000010B52320FFF736FE10BD10B52420FFF7E8
:100A100031FE10BD10B53320FFF72CFE10BD10B510
:100A200000F002F810BD00000CB50020019000900D
:100A30003348006840F480303149086000BF3048D6
:100A4000006800F4003000900198401C019000986C
:100A500018B90198B0F5A06FF1D12948006800F4E9
:100A6000003010B10120009001E0002000900098BB
:100A7000012843D12348006840F010002149086054
:100A80000846006820F0030008600846006840F04F
:100A9000020008601A4840681949486008464068E2
:100AA00048600846406840F48060486008464068F6
:100AB00020F47C1048600846406840F4E810486024
:100AC0000846006840F08070086000BF0C4800686D
:100AD00000F000700028F9D00948406820F00300B9
:100AE000074948600846406840F00200486000BF7F
:100AF0000348406800F00C000828F9D10CBD000044
:100B0000001002400020024010B50446B4F1807F7E
:100B100001D3012010BD24F07F40401E4FF0E021A2
:100B200048610F214FF0FF30FFF7BCFE00204FF06F
:100B3000E0218861072008610020EBE70448006895
:100B400020B103480068401E01490860704700005A
:100B50002C00002010B51348006840F00100114936
:100B6000086008464068104908400E494860084639
:100B700000680E4908400B4908600846006820F4E8
:100B8000802008600846406820F4FE0048604FF46A
:100B90001F008860FFF743FF4FF0006004490860C2
:100BA00010BD0000001002400000FFF8FFFFF6FE3D
:100BB00008ED00E010B51B20FFF75CFD10BD10B57F
:100BC0001C20FFF757FD10BD10B51D20FFF752FD8B
:100BD00010BD10B51E20FFF74DFD10BD10B5322021
:100BE000FFF748FD10BD10B53720FFF743FD10BDDE
:100BF00010B52E20FFF73EFD10BD10B53420FFF7D5
:100C000039FD10BD10B53520FFF734FD10BD10B50E
:100C10002520FFF72FFD10BD10B52620FFF72AFD78
:100C200010BD10B52720FFF725FD10BD21B1828929
:100C300042F40052828104E082894DF6FF731A402B
:100C40008281704702460020B1F5007F00D100BFCD
:100C500013880B400BB1012000E000207047F0B575
:100C60000346002400260025002040F66A17B942FA
:100C700000D100BF1846C1F3421401F01F0601273E
:100C800007FA06F5012C01D10C3004E0022C01D149
:100C9000103000E014301AB107682F43076002E0FB
:100CA0000768AF430760F0BD2DE9F04786B0054601
:100CB0000E460024A24600BFA1460027B08900B11D
:100CC00000BF2F462C8A4CF6FF700440F088044386
:100CD0002C82AC894EF6F3100440B0883189084369
:100CE000718908430443AC81AC8A4FF6FF4004404D
:100CF000B0890443AC8201A8FFF70EFE1F4887426B
:100D000002D1DDF810A001E0DDF80CA0A88900F404
:100D1000004040B10AEBCA0000EB0A1031684900FC
:100D2000B0FBF1F807E00AEBCA0000EB0A103168EB
:100D30008900B0FBF1F86420B8FBF0F00401200951
:100D4000642101FB1089A88900F4004040B13220E1
:100D500000EBC900B0FBF1F000F00700044308E02D
:100D6000322000EB09106421B0FBF1F000F00F001D
:100D700004432C8106B0BDE8F08700000038014034
:100D800001468888C0F30800704710B50020FFF7BF
:100D900071FC10BD10B5002201210948FFF75CFC71
:100DA000012202210648FFF757FC012208210448CE
:100DB000FFF752FC002210210148FFF74DFC10BD47
:100DC000000C014010B5012211460948FFF744FC10
:100DD000002202210648FFF73FFC002208210448B8
:100DE000FFF73AFC012210210148FFF735FC10BD46
:100DF000000C014010B5002201210948FFF72CFC2E
:100E0000012202210648FFF727FC0022082104489E
:100E1000FFF722FC002210210148FFF71DFC10BD46
:100E2000000C014010B5002201210948FFF714FC15
:100E3000002202210648FFF70FFC01220821044886
:100E4000FFF70AFC002210210148FFF705FC10BD46
:100E5000000C014010B5012211460948FFF7FCFBC8
:100E6000002202210648FFF7F7FB00220821044870
:100E7000FFF7F2FB002210210148FFF7EDFB10BD48
:100E8000000C014010B5002201210948FFF7E4FBE6
:100E9000002202210648FFF7DFFB00220821044858
:100EA000FFF7DAFB012210210148FFF7D5FB10BD47
:100EB000000C014010B5002201210948FFF7CCFBCE
:100EC000002202210648FFF7C7FB00220821044840
:100ED000FFF7C2FB002210210148FFF7BDFB10BD48
:100EE000000C014010B5102201210E48FFF748FB0D
:100EF000102202210B48FFF743FB1022082109486A
:100F0000FFF73EFB102211460648FFF739FB02228D
:100F1000D1020448FFF734FB022211030148FFF716
:100F20002FFB10BD000C01400146002001F480722F
:100F30000AB1102008E001F040020AB1082003E0E5
:100F400001F0800202B10C20704700000146002031
:100F5000114A914201D104201CE0104A914201D172
:100F6000082017E00E4A914201D1102012E00D4AEC
:100F7000914201D120200DE00B4A914201D1402045
:100F800008E00A4A914201D1802003E0084A9142D8
:100F900000D188157047000000080140000C014096
:100FA000001001400014014000180140001C0140E5
:100FB0000020014001466F20B1F5807F3BD012DC5C
:100FC000102930D008DC012925D0022925D0042998
:100FD00025D008293FD124E0202926D0402926D039
:100FE000802938D125E0B1F5805F2CD009DCB1F53E
:100FF000007F22D0B1F5806F21D0B1F5006F2AD1EA
:101000001FE0B1F5005F20D0B1F5804F1FD0B1F5E2
:10101000004F20D11DE000201EE001201CE0022036
:101020001AE0032018E0042016E0052014E0062052
:1010300012E0072010E008200EE009200CE00A2052
:101040000AE00B2008E00C2006E00D2004E00E2052
:1010500002E00F2000E000BF00BF70470146002003
:10106000104A914200D11CE00F4A914201D1012067
:1010700017E00E4A914201D1022012E00C4A91423F
:1010800001D103200DE00B4A914201D1042008E078
:10109000094A914201D1052003E0084A914200D15A
:1010A0000620704700080140000C0140001001407C
:1010B0000014014000180140001C014000200140C4
:1010C000014601F001020AB1042017E001F0080214
:1010D0000AB1002012E001F002020AB148200DE03E
:1010E00001F004020AB1282008E001F010020AB160
:1010F000102003E001F0200202B11420102921D0B9
:1011000008DC012910D0022910D0042910D00829A8
:101110001AD113E0202913D040290CD080290BD0FC
:10112000B1F5807F10D105E004200EE048200CE0EE
:1011300028200AE000BF00BF482006E0002004E0AD
:10114000142002E0102000E000BF00BF7047FFF74E
:10115000C9FEFFF7AFFE00F027F800BFFEE7000072
:1011600070B504460E4804600E4800684FF47A716A
:10117000B0FBF1F52846FFF7C7FC0021481EFFF73A
:1011800091FB00BF064800680028FBD14FF0E0202B
:10119000006920F001004FF0E021086170BD0000FF
:1011A0002C0000201400002008B50020082302466F
:1011B0004FF4165100900548FFF784FA04492520A2
:1011C000FFF778FA2520FFF766FA08BD00380140DE
:1011D000D511000810B586B0012201A91E48FFF7FD
:1011E0001FFB0446012C05D19DF80400612801D1A4
:1011F000FFF7E8FD012C05D19DF80400622801D11C
:10120000FFF7C8FD012C05D19DF80400632801D12A
:10121000FFF720FE012C05D19DF80400642801D1C0
:10122000FFF730FE012C05D19DF80400652801D19F
:10123000FFF740FE012C05D19DF80400662801D17E
:10124000FFF7D8FD012C05D19DF80400672801D1D6
:10125000FFF7E8FD06B010BD003801407C12000821
:1012600000000020340000006C010008B0120008EB
:1012700034000020CC0700008801000800000000B6
:101280000102030401020304060708090204060818
:1012900000A24A0400000000000000000102030454
:1012A0000607080900000000000000000000000020
:0400000508000131BD
:00000001FF
